S00F0000746573744952532E7372656367
S11300000C9434000C943E000C943E000C943E007E
S11300100C943E000C943E000C943E000C943E0064
S11300200C943E000C943E000C943E000C943E0054
S11300300C943E000C943E000C943E000C943E0044
S11300400C943E000C943E000C943E000C943E0034
S11300500C943E000C943E000C943E000C943E0024
S11300600C943E000C943E0011241FBECFEFD8E048
S1130070DEBFCDBF0E9440000C9450000C940000E1
S113008082E08AB984E0809368001BB84F9B04C067
S11300908BB182608BB9FACF8BB18D7F8BB9F6CFE0
S10700A0F894FFCFFE
S9030000FC
