:100000000C9434000C943E000C943E000C943E0082
:100010000C943E000C943E000C943E000C943E0068
:100020000C943E000C943E000C943E000C943E0058
:100030000C943E000C943E000C943E000C943E0048
:100040000C943E000C943E000C943E000C943E0038
:100050000C943E000C943E000C943E000C943E0028
:100060000C943E000C943E0011241FBECFEFD8E04C
:10007000DEBFCDBF0E9440000C945C000C940000D9
:100080008AB182608AB98BB182608BB92FEF87EA1F
:1000900091E6215080409040E1F700C000008BB114
:1000A0008D7F8BB92FEF87EA91E6215080409040F9
:0C00B000E1F700C00000E7CFF894FFCF9C
:00000001FF
